:100000000C948F000C94B7000C94B7000C94B700BC
:100010000C94B7000C94B7000C94B7000C94B70084
:100020000C94B7000C94B7000C94B7000C94B70074
:100030000C94B7000C94FA0B0C94B7000C94B70016
:100040000C94580B0C94B7000C94C80B0C94A20B96
:100050000C94B7000C94B7000C94B7000C94B70044
:100060000C94B7000C94B70008000000BE9224491D
:10007000123EABAAAA2ABECDCCCC4C3E00000080DA
:10008000BEABAAAAAA3E00000000BF000000803F4D
:100090000000000000084178D3BB4387D1133D190D
:1000A0000E3CC3BD4282AD2B3E68EC8276BED98F3A
:1000B000E1A93E4C80EFFFBE01C4FF7F3F0000007E
:1000C000000000000000240027002A0000000000BB
:1000D000250028002B000000000023002600290036
:1000E00004040404040404040202020202020303DE
:1000F00003030303010204081020408001020408E6
:100100001020010204081020000000080002010075
:10011000000304070000000000000000210C11246F
:100120001FBECFEFD8E0DEBFCDBF24E0AAE0B3E032
:1001300001C01D92AC30B207E1F713E0A0E0B1E0DE
:10014000ECEEFEE302C005900D92AA30B107D9F79C
:1001500010E0CFE8D0E004C02197FE010E94681DA6
:10016000CE38D107C9F70E94130D0C94741F0C945C
:100170000000DC01ED91FC910280F381E02D43E071
:1001800050E06CE771E00994833081F028F481300D
:1001900099F08230A9F008958730A9F08830C9F02D
:1001A0008430B1F4809180008F7D03C08091800005
:1001B0008F7780938000089584B58F7784BD0895EC
:1001C00084B58F7DFBCF8091B0008F778093B00096
:1001D00008958091B0008F7DF9CFCF93DF93282FC2
:1001E00030E0F901E85FFE4F8491F901EC50FF4FD8
:1001F000D491F901E052FF4FC491CC23A1F08111B9
:100200000E94C400EC2FF0E0EE0FFF1FEA52FF4FF8
:10021000A591B491EC91ED2381E090E009F480E0A8
:10022000DF91CF91089580E090E0FACFCF92DF92F6
:10023000EF92FF928FB7F894C0902303D0902403DD
:10024000E0902503F09026038FBF8091EE030E947B
:10025000ED009C0181E02115310509F480E08093D7
:10026000F0038091EF03811106C091E0232B09F088
:1002700090E09093F0032091F0033091F103231765
:1002800041F0C092F403D092F503E092F603F092AD
:10029000F7038091F4039091F503A091F603B091D8
:1002A000F703C81AD90AEA0AFB0A4091E103509100
:1002B000E2036091E3037091E4034C155D056E0564
:1002C0007F0594F44091E003241771F02093E0033C
:1002D000222351F04091F2035091F3034F5F5F4F9F
:1002E0005093F3034093F203231302C01092ED03E3
:1002F0002093F1032091E003211123C04091E503F5
:100300005091E6036091E7037091E8034C155D0599
:100310006E057F058CF48091F2039091F303909326
:10032000DF038093DE031092F3031092F203892B14
:1003300019F081E08093ED03FF90EF90DF90CF9074
:1003400008954091E9035091EA036091EB037091A5
:10035000EC034C155D056E057F0574F78091F20383
:100360009091F30322273327281B390B3093DF03A7
:100370002093DE03D8CF1F93CF93DF93282F30E055
:10038000F901E85FFE4F8491F901EC50FF4FD491E1
:10039000F901E052FF4FC491CC23A9F0162F81112F
:1003A0000E94C400EC2FF0E0EE0FFF1FE453FF4F5C
:1003B000A591B4918FB7F894EC91111108C0D09524
:1003C000DE23DC938FBFDF91CF911F910895DE2B49
:1003D000F8CFCF93DF9390E0FC01EC50FF4F2491D6
:1003E00080529F4FFC0184918823C9F090E0880FD0
:1003F000991FFC01EE53FF4FA591B491FC01E4530A
:10040000FF4FC591D49161110DC09FB7F8948C91A5
:10041000209582238C938881282328839FBFDF9196
:10042000CF910895623051F49FB7F8943C91822F98
:10043000809583238C93E8812E2BEFCF8FB7F89490
:10044000EC912E2B2C938FBFEACF8E3008F08E507C
:100450008770806480937C0080917A0080648093B0
:100460007A0080917A0086FDFCCF8091780090918F
:10047000790008953FB7F89480911F03909120036D
:10048000A0912103B091220326B5A89B05C02F3F60
:1004900019F00196A11DB11D3FBFBA2FA92F982FAA
:1004A0008827BC01CD01620F711D811D911D42E0A5
:1004B000660F771F881F991F4A95D1F708958F926D
:1004C0009F92AF92BF92CF92DF92EF92FF926B0119
:1004D0007C010E943A024B015C01C114D104E10489
:1004E000F104B9F00E943A02681979098A099B0956
:1004F000683E73408105910580F321E0C21AD1085E
:10050000E108F10888EE880E83E0981EA11CB11C5A
:10051000E4CFFF90EF90DF90CF90BF90AF909F908F
:100520008F900895AF92BF92CF92DF92EF92FF9299
:100530000F931F93CF93DF936C017B018B01040F0B
:10054000151FEB015E01AE18BF08C017D10759F0A7
:100550006991D601ED91FC910190F081E02DC601E9
:100560000995892B79F7C501DF91CF911F910F91E3
:10057000FF90EF90DF90CF90BF90AF900895FC0177
:10058000538D448D252F30E0842F90E0821B930BF8
:10059000541710F0CF96089501970895FC01918D9E
:1005A000828D981761F0A28DAE0FBF2FB11D5D96A1
:1005B0008C91928D9F5F9F73928F90E008958FEF43
:1005C0009FEF0895FC01918D828D981731F0828DF7
:1005D000E80FF11D858D90E008958FEF9FEF08954E
:1005E000FC01918D228D892F90E0805C9F4F821BB2
:1005F00091098F739927089587E293E00E94F00292
:1006000021E0892B09F420E0822F089580E090E01A
:10061000892B29F00E94FC0281110C94000008959E
:10062000FC01A48DA80FB92FB11DA35ABF4F2C9167
:10063000848D90E001968F739927848FA689B7895E
:100640002C93A089B1898C91837080648C93938D55
:10065000848D981306C00288F389E02D80818F7DF8
:1006600080830895EF92FF920F931F93CF93DF93B0
:10067000EC0181E0888F9B8D8C8D98131AC0E889DE
:10068000F989808185FF15C09FB7F894EE89FF89AD
:100690006083E889F98980818370806480839FBF4B
:1006A00081E090E0DF91CF911F910F91FF90EF904B
:1006B0000895F62E0B8D10E00F5F1F4F0F7311275B
:1006C000E02E8C8D8E110CC00FB607FCFACFE88996
:1006D000F989808185FFF5CFCE010E941003F1CF0B
:1006E000EB8DEC0FFD2FF11DE35AFF4FF0829FB70A
:1006F000F8940B8FEA89FB8980818062CFCFCF93FA
:10070000DF93EC01888D8823B9F0AA89BB89E88939
:10071000F9898C9185FD03C0808186FD0DC00FB6DF
:1007200007FCF7CF8C9185FFF2CF808185FFEDCF5D
:10073000CE010E941003E9CFDF91CF910895089573
:10074000FC01F8948481958120852230D1F49C01AC
:100750002170332735832483789420852430D1F485
:10076000959587959595879526852223C1F02185B6
:100770003285232F332797FF15C0C90180959095A7
:100780000895243021F49C0123703327E3CF158290
:100790001482E2CF223041F795958795E5CF30E07E
:1007A00020E0E9CF009711F0C9010196089508955E
:1007B00090E080E0089580911C038093480180912F
:1007C0001A0380934701809118038093460180911A
:1007D00016039091170390934501809344018091F3
:1007E000140380934301089580E10E94ED00892B5A
:1007F000D9F780E10E94ED00892BD9F3809149015E
:1008000090914A018230910538F0880F991F880F26
:10081000991F05970197F1F70895CF92DF92EF9214
:10082000FF920F931F93CF93DF93C0911203D09148
:1008300013038FB7F894C0902303D0902403E09063
:100840002503F09026038FBF8E85882359F0898574
:100850009A8502979A87898789859A8597FF02C02A
:100860001A86198688810E94ED002B8113E02817D3
:10087000190609F010E089810E94ED002B812817EC
:10088000190611F481E018278E819F81811B80FF5A
:100890008BC0212F110F330B3F832E832C813D8181
:1008A0008270082E000C990B0197820F931F9D8375
:1008B0008C8381E09E85992361F0882351F089859E
:1008C0009A85883E9B4028F489859A8549969A871F
:1008D00089878A81882309F45EC040910D03509175
:1008E0000E0360910F037091100397018601041BA2
:1008F000150B260B370BB901A8014A3051056105CC
:10090000710508F448C0C0920D03D0920E03E09226
:100910000F03F09210030E94ED002B812817190697
:1009200081F480910B0390910C03019690930C033A
:1009300080930B038937910520F083E090E09C873A
:100940008B878A810E94ED002B8131E023272817B5
:100950001906A1F480910B0390910C03892B51F09F
:100960008B859C85039711F584E090E09C878B87AD
:1009700010920A0310920C0310920B0380910A0349
:10098000882349F0825080930A03811104C085E0D6
:1009900090E09C878B87DF91CF911F910F91FF9003
:1009A000EF90DF90CF90089580E084CF80910A038C
:1009B000823028F08C33F0F686E090E0D7CF8D853A
:1009C000811104C081E080930A03D4CF8CE3FBCF74
:1009D000FC01808191810C941E1EEF92FF920F9377
:1009E0001F93CF93DF93EC017B018A01888199816A
:1009F000009729F02A813B812417350788F4B80134
:100A00006F5F7F4F0E94A71E009791F099838883A4
:100A10001B830A832C813D81232B11F4FC0110825E
:100A20001D830C83B701888199810E946D1F0CC0C2
:100A300088819981009711F00E941E1E19821882E8
:100A40001D821C821B821A82CE01DF91CF911F91E1
:100A50000F91FF90EF900895EF92FF920F931F93E5
:100A6000CF93DF93CDB7DEB762970FB6F894DEBFB2
:100A70000FBECDBF8C01CB01F80111821082138211
:100A80001282158214824AE09E012F5F3F4F790146
:100A9000B9010E94311AF70101900020E9F731975E
:100AA000AF014E195F09B701C8010E94ED046296BB
:100AB0000FB6F894DEBF0FBECDBFDF91CF911F916F
:100AC0000F91FF90EF900895EF92FF920F931F9375
:100AD000CF93DF93CDB7DEB729970FB6F894DEBF7B
:100AE0000FBECDBF8C01862FF801118210821382B8
:100AF0001282158214824AE09E012F5F3F4F7901D6
:100B0000B90190E00E943C1AF70101900020E9F73A
:100B10003197AF014E195F09B701C8010E94ED047A
:100B200029960FB6F894DEBF0FBECDBFDF91CF91EF
:100B30001F910F91FF90EF900895FC011182108298
:100B40001382128215821482FB0101900020E9F7C2
:100B50003197AF01461B570B0C94ED04CF93DF93F5
:100B6000EC0160E08E810E94BB0161E08E810E94F9
:100B7000BB0160E08E810E94BB018BE891E0019790
:100B8000F1F7DF91CF910895CF92DF92EF92FF922C
:100B90000F931F93CF93DF936C017C0187E0E80EE6
:100BA000F11CD0E0C0E0062F10E0B8010C2E02C00E
:100BB000759567950A94E2F76170F70181917F015D
:100BC0000E94BB012196C430D10579F7C601DF919F
:100BD000CF911F910F91FF90EF90DF90CF900C94E9
:100BE000AE05CF92DF92EF92FF920F931F93CF93B8
:100BF000DF93EC01F62E642F8C810E94BB018D8166
:100C00008F3F19F060E00E94BB010F2D10E08F852F
:100C100084FF25C06E0187E0C80ED11CF12CE12CA9
:100C2000B8010E2C02C0759567950A94E2F76170C1
:100C3000F60181916F010E94BB01FFEFEF1AFF0ADD
:100C400088E0E816F10461F7CE01DF91CF911F91A2
:100C50000F91FF90EF90DF90CF900C94AE05B8010C
:100C600084E0759567958A95E1F7CE010E94C405E9
:100C70006F2DCE01DF91CF911F910F91FF90EF90DB
:100C8000DF90CF900C94C40541E00E94F10581E013
:100C900090E0089540E00C94F10561E086EC93E06B
:100CA0000E944A068BE39FE10197F1F70895CF93E5
:100CB000DF93823029F49091D50398609093D50307
:100CC0008093D9031092DA0380E48093DB0380E100
:100CD0008093DC0380E58093DD0361E08091CA03AB
:100CE0000E94E9018091CB038F3F19F061E00E94DF
:100CF000E90161E08091CC030E94E901C6ECD3E0F8
:100D00009E01265C33408091D50384FD0BC084E0B6
:100D100090E021962817390744F461E08E810E9403
:100D2000E901EECF88E090E0F4CF8BE39DE00197FE
:100D3000F1F760E08091CA030E94BB0160E08091FE
:100D4000CC030E94BB018091CB038F3F19F060E080
:100D50000E94BB016091D50364FD3AC063E086EC5C
:100D600093E00E94C405CBE4D6E4CE010197F1F7ED
:100D700063E086EC93E00E94C4052197F1F763E0FD
:100D800086EC93E00E94C40583E592E00197F1F7B9
:100D900062E086EC93E00E94C4056091D503606236
:100DA00086EC93E00E944A0684E08093D6036CE0D0
:100DB00086EC93E00E944A060E944D0682E08093F2
:100DC000D70366E086EC93E0DF91CF910C944A065E
:100DD000606286EC93E00E944A068BE496E40197F9
:100DE000F1F76091D503606286EC93E00E944A06B9
:100DF00083E592E00197F1F76091D503606286EC9C
:100E000093E00E944A06C9CFEF92FF920F931F937F
:100E1000CF93DF938C017A0188E0689FB0011124A1
:100E20006064C8010E944A06E701A8E0EA0EF11CCE
:100E30006991D801ED91FC910190F081E02DC801FC
:100E40000995CE15DF05A1F7DF91CF911F910F9185
:100E5000FF90EF900895443008F043E0FC012389AF
:100E6000421710F04FEF420FFC01E40FF11D2489EF
:100E7000620F60680C944A06CF93DF93EA01462F15
:100E8000682F86EC93E00E942B074C815D8168817E
:100E9000798186EC93E0DF91CF910C9492020F93CD
:100EA0001F93CF93DF9300D000D000D0CDB7DEB733
:100EB0008C016CE771E0CE0101960E949D05AE01A8
:100EC0004F5F5F4F61E070E0C8010E943C07CE01B8
:100ED00001960E94E80426960FB6F894DEBF0FBE76
:100EE000CDBFDF91CF911F910F910895CF93DF93E5
:100EF00000D000D000D0CDB7DEB76BE771E0CE01F7
:100F000001960E949D05AE014F5F5F4F61E070E06A
:100F100090E080E00E943C07CE0101960E94E80428
:100F200026960FB6F894DEBF0FBECDBFDF91CF91EE
:100F300008950F931F93CF93DF9300D000D000D07C
:100F4000CDB7DEB78C016FE671E0CE0101960E944D
:100F50009D05AE014F5F5F4FB80190E080E00E94B9
:100F60003C07CE0101960E94E80426960FB6F8943D
:100F7000DEBF0FBECDBFDF91CF911F910F910895BE
:100F8000EF92FF920F931F93CF93DF9300D000D087
:100F900000D0CDB7DEB78C017B016DE771E0CE01EB
:100FA00001960E949D05AE014F5F5F4FB701C801DA
:100FB0000E943C07CE0101960E94E80426960FB6D7
:100FC000F894DEBF0FBECDBFDF91CF911F910F917F
:100FD000FF90EF9008951F93CF93DF9300D000D040
:100FE00000D0CDB7DEB70E944D0660E871E0CE01BB
:100FF00001960E949D05AE014F5F5F4F70E060E07B
:1010000090E080E00E943C07CE0101960E94E80437
:101010006DE771E0CE0101960E949D05AE014F5F24
:101020005F4F61E070E090E080E00E943C07CE01FD
:1010300001960E94E80460914801CE0101960E9449
:101040006405AE014F5F5F4F61E070E090E080E0CB
:101050000E943C07CE0101960E94E80461E971E01C
:10106000CE0101960E949D05AE014F5F5F4F61E08A
:1010700070E082E090E00E943C07CE0101960E9461
:10108000E8046CE771E0CE0101960E949D05AE0177
:101090004F5F5F4F61E070E084E090E00E943C07AA
:1010A000CE0101960E94E804809147011AE0612F69
:1010B0000E94481D682F70E0CE0101960E942C0509
:1010C000AE014F5F5F4F61E070E084E090E00E940E
:1010D0003C07CE0101960E94E8046CE771E0CE0166
:1010E00001960E949D05AE014F5F5F4F61E070E089
:1010F00088E090E00E943C07CE0101960E94E8043F
:1011000080914601612F0E94481D682F70E0CE013A
:1011100001960E942C05AE014F5F5F4F61E070E0C9
:1011200088E090E00E943C07CE0101960E94E8040E
:101130006CE771E0CE0101960E949D05AE014F5F04
:101140005F4F61E070E08CE090E00E943C07CE01D0
:1011500001960E94E80480914401909145016AE063
:1011600070E00E94541DCE0101960E942C05AE0134
:101170004F5F5F4F61E070E08CE090E00E943C07C1
:10118000CE0101960E94E8046FE070E080E090E0FC
:101190000E945F0226960FB6F894DEBF0FBECDBF49
:1011A000DF91CF911F9108950C94691BCF9325E097
:1011B000AC01249FC001259F900D1124909303043E
:1011C0008093020420910004309101046091480151
:1011D000820F931F0E94D40880914701CAE06C2FB0
:1011E0000E94481D4091FE035091FF03209102048C
:1011F00030910304682FCA01820F931F0E94D40804
:10120000809146016C2F0E94481D4091FC03509133
:10121000FD032091020430910304682FCA01820F5C
:10122000931F0E94D40880914401909145016AE087
:1012300070E00E94541D2091FA033091FB038091CD
:10124000020490910304820F931F0E94D40880919E
:1012500043016C2F0E94481D4091F8035091F903FF
:101260002091020430910304682FCA01820F931F5A
:10127000CF910C94D4080C94611B0F931F93CF93C0
:1012800025E0289F8001299F100D1124109303044D
:10129000009302048091000490910104800F911F3B
:1012A0000E943B0990E090931D0380931C03809162
:1012B000FE039091FF03800F911F0E943B09CAE03B
:1012C0008C9FC001112490931B0380931A0380917B
:1012D000FC039091FD03800F911F0E943B098C9F9E
:1012E000C001112490931903809318038091FA038D
:1012F0009091FB03800F911F0E943B098C9FC001BE
:10130000112490931703809316038091F803909112
:10131000F903800F911F0E943B098C9FC00111248B
:101320009093150380931403CF911F910F9108950B
:101330000F931F93CF93DF9300D000D000D0CDB791
:10134000DEB78230910509F4EDC00CF0CFC000E0AB
:1013500011E0019709F4DBC00E944D0663E971E0DA
:10136000CE0101960E949D05AE014F5F5F4F70E078
:1013700060E090E080E00E943C07CE0101960E9470
:10138000E80401E010E060E0C8010E94D4080F5FAB
:101390001F4F0F3F1105B9F781E090E00E949809B7
:1013A00005E010E06EE971E0CE0101960E949D0516
:1013B000AE014F5F5F4F61E070E090E080E00E941F
:1013C0003C07CE0101960E94E80468EC70E080E0E2
:1013D00090E00E945F0281E090E00E94990768EC33
:1013E00070E080E090E00E945F0201501109D1F6A8
:1013F00064EF71E080E090E00E945F0282E0809301
:1014000048018CE38093470188E28093460182E3A0
:1014100090E090934501809344018093430181E0E3
:1014200090E00E94D60860914201675F8FEF93E0E1
:101430000E94D408609106048CEF93E00E94D408C7
:101440000E944D066EEA71E0CE0101960E949D0554
:10145000AE014F5F5F4F70E060E090E080E00E947F
:101460003C07CE0101960E94E8046FEB71E0CE01CB
:1014700001960E949D05AE014F5F5F4F61E070E0F5
:1014800090E080E00E943C07CE0101960E94E804B3
:1014900060ED77E080E090E00E945F020E944D06E0
:1014A00066EC71E0CE0101960E949D05AE014F5F92
:1014B0005F4F70E060E090E080E00E943C07CE016A
:1014C00001960E94E80468EE73E080E090E00E94DC
:1014D0005F020C94000026960FB6F894DEBF0FBE94
:1014E000CDBFDF91CF911F910F910895833091056A
:1014F000B9F100E011E0049709F02ECFC8010E9475
:101500003B098F3F09F447C00F5F1F4FF7CF6FEFC5
:10151000C8010E94D4080F5F1F4F0E3F83E01807D9
:10152000B1F7D9CF00E011E0C8010E943B098F3F1D
:1015300019F00F5F1F4FF8CF0A3F83E0180724F020
:1015400081E090E00E949809C801059765E070E08D
:101550000E94541DCB010E943D090E94DB03BBCFBA
:1015600000E011E0C8010E943B098F3F19F00F5FB6
:101570001F4FF8CF0A3F83E0180724F081E090E086
:101580000E949809C80165E070E00E94541DCB01DB
:101590000E94D608A0CFC801059765E070E00E94C0
:1015A000541DCB010E943D092091480180911C03EC
:1015B00090911D032817190639F520914701809154
:1015C0001A0390911B0328171906F1F42091460184
:1015D000809118039091190328171906A9F42091F6
:1015E000440130914501809116039091170328170B
:1015F000390751F420914301809114039091150310
:101600002817190609F467CF83E090E00E94980933
:1016100062CFCF92DF92EF92FF92BC01990F880BBD
:10162000990B0E94681A9B01AC0160E070E080E8B1
:1016300094E40E941B1C20E030E040E85FE30E943D
:10164000AE1B20E030E44CE156E40E94A31A0E9455
:10165000CB1C6B017C0129E537E44CEB53E30E9482
:10166000A31AA70196010E94A31A23E73FE745E7C3
:1016700059E30E94AF1BA70196010E94A31A2BEE0B
:101680003FEF43E95AE30E94AF1B9B01AC0160E0CE
:1016900070E080E89FE30E941B1C23E333E948E8E5
:1016A00053E40E94AE1BFF90EF90DF90CF9008951F
:1016B0001F920F920FB60F9211242F933F938F9387
:1016C0009F93AF93BF938091230390912403A091A4
:1016D0002503B091260330911E0323E0230F2D37FD
:1016E00058F50196A11DB11D20931E03809323037D
:1016F00090932403A0932503B093260380911F03A6
:1017000090912003A0912103B09122030196A11D85
:10171000B11D80931F0390932003A0932103B093E6
:101720002203BF91AF919F918F913F912F910F9085
:101730000FBE0F901F90189526E8230F0296A11D4B
:10174000B11DD2CF1F920F920FB60F9211242F937B
:101750003F934F935F936F937F938F939F93AF9339
:10176000BF93EF93FF9387E293E00E941003FF91F2
:10177000EF91BF91AF919F918F917F916F915F9109
:101780004F913F912F910F900FBE0F901F90189582
:101790001F920F920FB60F9211242F938F939F9346
:1017A000EF93FF93E0913703F09138038081E0914C
:1017B0003D03F0913E0382FD1BC090818091400368
:1017C0008F5F8F7320914103821741F0E0914003B6
:1017D000F0E0E95DFC4F958F80934003FF91EF911E
:1017E0009F918F912F910F900FBE0F901F90189582
:1017F0008081F4CF1F920F920FB60F9211242F9376
:101800003F934F935F936F937F938F939F93AF9388
:10181000BF93EF93FF93E0910001F09101010995CF
:10182000FF91EF91BF91AF919F918F917F916F91B8
:101830005F914F913F912F910F900FBE0F901F908E
:10184000189510922A031092290348EE53E060E0A5
:1018500070E040932B0350932C0360932D037093FF
:101860002E0385E591E0909328038093270385EC70
:1018700090E0909334038093330384EC90E0909352
:1018800036038093350380EC90E090933803809387
:10189000370381EC90E090933A038093390382EC14
:1018A00090E090933C0380933B0386EC90E0909310
:1018B0003E0380933D031092400310924103109227
:1018C0004203109243038091490190914A01909301
:1018D0000704809306042091040430910504E5E098
:1018E000E29FC001E39F900D112490930304809325
:1018F000020490930104809300049C012F5F3F4FEA
:101900003093FF032093FE032F5F3F4F3093FD037F
:101910002093FC032F5F3F4F3093FB032093FA0388
:1019200004969093F9038093F80389E08093EE0383
:101930001092EF0381E08093F0038093F103109203
:10194000F3031092F2031092DF031092DE03109261
:10195000E0031092F4031092F5031092F603109234
:10196000F70384E190E0A0E0B0E08093E10390937E
:10197000E203A093E303B093E4038AEF90E0A0E0D6
:10198000B0E08093E5039093E603A093E703B09360
:10199000E8034093E9035093EA036093EB037093E9
:1019A000EC031092ED0360E089E00E94E901809170
:1019B000EF03811105C061E08091EE030E94BB013D
:1019C0001092C9031092C80387E691E09093C70371
:1019D0008093C6038CE08093CA038FEF8093CB0380
:1019E0008AE08093CC0385E08093CD0384E08093EC
:1019F000CE0383E08093CF0382E08093D0031092E4
:101A0000D1031092D2031092D3031092D4031092F8
:101A1000D50381E00E94570686EC93E09093C503BE
:101A20008093C4030895CF93DF93CDB7DEB72C978F
:101A30000FB6F894DEBF0FBECDBF789484B5826038
:101A400084BD84B5816084BD85B5826085BD85B562
:101A5000816085BD80916E00816080936E001092E0
:101A6000810080918100826080938100809181005B
:101A700081608093810080918000816080938000EC
:101A80008091B10084608093B1008091B00081604A
:101A90008093B00080917A00846080937A00809176
:101AA0007A00826080937A0080917A0081608093CE
:101AB0007A0080917A00806880937A001092C10049
:101AC00061E08BE00E94E90160E086E00E94E901AC
:101AD00060E08EE00E94E90160E08FE00E94E90191
:101AE00062E089E00E94E90184E190E0A0E0B0E0DA
:101AF0008093E1039093E203A093E303B093E403A4
:101B00008AEF90E0A0E0B0E08093E5039093E603D5
:101B1000A093E703B093E80388EE93E0A0E0B0E081
:101B20008093E9039093EA03A093EB03B093EC0353
:101B30008FE090E00E94821D8C0187E0D8018C9399
:101B400088E011968C93119789E012968C931297E6
:101B500013961C92139715961C921E921497179623
:101B60001C921E92169784E018968C9318971A96DA
:101B70001C921E9219971C961C921E921B9781E034
:101B80001D968C931D971E968C9362E087E00E94B1
:101B9000E90162E0F80181810E94E90162E0D80177
:101BA00012968C910E94E901F80180810E94ED005B
:101BB000D80113962C9113972817190631F483E056
:101BC00090E017969C938E931697F80181810E945E
:101BD000ED00D80113962C9113972817190641F49C
:101BE00016968D919C91B1E08B27F801978386839F
:101BF000109313030093120381E0D8011E968C9377
:101C000010E1109381001092800020E43FE13093B6
:101C100087002093860091E1909381002DE034E0CD
:101C2000309301012093000180936F0082E00E94B5
:101C300057064AE351E060E08091C4039091C503E8
:101C40000E94040742E351E061E08091C403909157
:101C5000C5030E9404074AE251E062E08091C40398
:101C60009091C5030E94040742E251E063E0809135
:101C7000C4039091C5030E9404074AE151E064E067
:101C80008091C4039091C5030E94040742E151E092
:101C900065E08091C4039091C5030E9404074AE067
:101CA00051E066E08091C4039091C5030E9404074F
:101CB00042E051E067E08091C4039091C5030E9427
:101CC00004070E944D06E0913703F091380382E04B
:101CD0008083E0913703F09138031082E091330361
:101CE000F09134031082E0913503F09136031083B4
:101CF00010923F03E0913B03F0913C0386E0808328
:101D0000E0913903F0913A03808180618083E09112
:101D10003903F0913A03808188608083E091390330
:101D2000F0913A03808180688083E0913903F091DB
:101D30003A0380818F7D808360ED71E08E010F5FBB
:101D40001F4FC8010E949D05A80170E060E090E06F
:101D500080E00E943C07C8010E94E80460EE71E048
:101D6000C8010E949D05A80161E070E090E080E05C
:101D70000E943C07C8010E94E80461E070E0C801CD
:101D80000E942C05A80161E070E08CE090E00E94C8
:101D90003C07C8010E94E8046AEB72E0C8010E9497
:101DA0009D05A80161E070E08DE090E00E943C0795
:101DB000C8010E94E80467E070E0C8010E942C0599
:101DC000A80161E070E08EE090E00E943C07C8014D
:101DD0000E94E80468EE73E080E090E00E945F02F9
:101DE00081E090E00E9499076CE271E080E090E071
:101DF0000E945F0290E080E00E94990764EF71E02A
:101E000080E090E00E945F028FEF93E00E943B0928
:101E10002091420130E0275F3F4F8217130621F0E7
:101E200090E080E00E94980982E090E00E9498098A
:101E30008AE0A82EB12CF801E095F095FC87EB879D
:101E40008EE00E9425020E94090B0E948D1C6035C5
:101E500071050CF46CC20E944D068EE00E942502B2
:101E60000E94090B0E948D1C9B0177FF04C0222752
:101E70003327261B370BC901B5010E94541D682E5C
:101E8000CB01B5010E94541D782E8EE00E942502E0
:101E90000E94090B0E948D1C693271050CF445C229
:101EA0006A8279827801912C812CD701ED917D0194
:101EB000E11154C0811055C08B859C858A0F9B1FF2
:101EC000892B09F04EC040E060E08091C4039091FE
:101ED000C5030E942B078091C4039091C5030E9403
:101EE000B90041E060E08091C4039091C5030E9475
:101EF0002B078091C4039091C5030E94B900B3E001
:101F00009B0EE6E09E12D1CF0FB6F894DEBF0FBE57
:101F1000CDBF6CEE71E0C8010E949D05A80170E084
:101F200060E087E090E00E943C07C8010E94E8045E
:101F300064EF71E0C8010E949D05A80161E070E0B6
:101F400087E090E00E943C07C8010E94E80468EE28
:101F500073E080E090E00E945F0297CFEA3008F0E3
:101F6000DFC0F0E0E454F04F8091C4039091C503CA
:101F700040E0692D0C94681DC60FEC0F3E109310C5
:101F8000B910D3100D1153116D1187110E942B0739
:101F90008091C4039091C503DC01ED91FC91019007
:101FA000F081E02D60E009958091C4039091C50314
:101FB000DC01ED91FC910190F081E02D61E009954B
:101FC0008091C4039091C503DC01ED91FC910190D7
:101FD000F081E02D62E046C10E942B078091C4038E
:101FE0009091C503DC01ED91FC910190F081E02D11
:101FF0006EEF09958091C4039091C503DC01ED91CA
:10200000FC910190F081E02D6EEF09958091C40361
:102010009091C503DC01ED91FC910190F081E02DE0
:1020200062E0099541E0692D8091C4039091C50358
:102030000E942B078091C4039091C503DC01ED91B0
:10204000FC910190F081E02D6EEF09958091C40321
:102050009091C503DC01ED91FC910190F081E02DA0
:102060006EEF09958091C4039091C503DC01ED9159
:10207000FC910190F081E02D62E051C00E942B079D
:102080008091C4039091C503DC01ED91FC91019016
:10209000F081E02D63E009958091C4039091C50320
:1020A000DC01ED91FC910190F081E02D66E0099555
:1020B0008091C4039091C503DC01ED91FC910190E6
:1020C000F081E02D62E0099541E0692D8091C40323
:1020D0009091C5030E942B078091C4039091C50382
:1020E000DC01ED91FC910190F081E02D60E009951B
:1020F0008091C4039091C503DC01ED91FC910190A6
:10210000F081E02D64E009958091C4039091C503AE
:10211000DC01ED91FC910190F081E02D64E00995E6
:1021200088248394ECCE0E942B078091C403909165
:10213000C503DC01ED91FC910190F081E02D63E09D
:1021400009958091C4039091C503DC01ED91FC9148
:102150000190F081E02D66E009958091C403909193
:10216000C503DC01ED91FC910190F081E02D62E06E
:102170003FC00E942B078091C4039091C503DC01EE
:10218000ED91FC910190F081E02D60E00995809146
:10219000C4039091C503DC01ED91FC910190F081A5
:1021A000E02D64E032CF0E942B078091C403909110
:1021B000C503DC01ED91FC910190F081E02D60E020
:1021C00009958091C4039091C503DC01ED91FC91C8
:1021D0000190F081E02D66E009958091C403909113
:1021E000C503DC01ED91FC910190F081E02D65E0EB
:1021F000099541E0692D8091C4039091C5030E9427
:102200002B078091C4039091C503DC01ED91FC91F3
:102210000190F081E02D67E039C00E942B0780918A
:10222000C4039091C503DC01ED91FC910190F08114
:10223000E02D60E009958091C4039091C503DC0115
:10224000ED91FC910190F081E02D66E0099580917F
:10225000C4039091C503DC01ED91FC910190F081E4
:10226000E02D65E0099541E0692D8091C4039091CE
:10227000C5030E942B078091C4039091C503DC0124
:10228000ED91FC910190F081E02D60E00995809145
:10229000C4039091C503DC01ED91FC910190F081A4
:1022A000E02D64E0DECE0E942B078091C403909164
:1022B000C503DC01ED91FC910190F081E02D61E01E
:1022C00009958091C4039091C503DC01ED91FC91C7
:1022D0000190F081E02D61E098CE0E942B07809163
:1022E000C4039091C503DC01ED91FC910190F08154
:1022F000E02D60E009958091C4039091C503DC0155
:10230000ED91FC910190F081E02D66E058CE0E94A5
:102310002B078091C4039091C503DC01ED91FC91E2
:102320000190F081E02D60E00BCF0E94EB070E944E
:1023300016018091DE039091DF038230910509F44C
:1023400081C58330910509F474C6019709F00DC564
:10235000E0904801F12C0E944D066CEF71E0C8013D
:102360000E949D05A80170E060E090E080E00E947E
:102370003C07C8010E94E80460914801C8010E941E
:102380006405A80161E070E090E080E00E943C07F5
:10239000C8010E94E80461E971E0C8010E949D053E
:1023A000A80161E070E084E090E00E943C07C80171
:1023B0000E94E804470180911203909113030E9448
:1023C000A0036701C81AD90A7401C814D904A1F17D
:1023D000EE24E394F12CF5E1CF16D1043CF4B4E102
:1023E000EB2EF12C1C141D040CF476010E947607D0
:1023F000B601C8010E942C05A80161E070E090E0E0
:1024000080E00E943C07C8010E94E80461E971E095
:10241000C8010E949D05A80161E070E084E090E0A1
:102420000E943C07C8010E94E8046AE070E080E076
:1024300090E00E945F0246010E9416018091DE0337
:102440009091DF03009711F08093110380911103A5
:10245000813039F0823009F0AECF8092480110927D
:102460001103809147016AE00E94481DE82EF12C7B
:102470000E944D066DE072E0C8010E949D05A80112
:1024800070E060E090E080E00E943C07C8010E949C
:10249000E80460914701C8010E946405A80161E059
:1024A00070E090E080E00E943C07C8010E94E804D0
:1024B0006EE172E0C8010E949D05A80161E070E034
:1024C00086E090E00E943C07C8010E94E804D12CFD
:1024D000C12CFAE09F2E80911203909113030E9469
:1024E000A003E81AF90AEC14FD04A1F19E9C600116
:1024F0009F9CD00C11242FE1E216F1040CF08EC445
:10250000F7FE03C0EEE1EE2EF12C0E947607B60135
:10251000C8010E942C05A80161E070E090E080E015
:102520000E943C07C8010E94E8046EE172E0C80105
:102530000E949D05A80161E070E086E090E00E94A5
:102540003C07C8010E94E8046AE070E080E090E087
:102550000E945F020E9416018091DE039091DF03CA
:10256000009711F08093110380911103813039F0AD
:10257000823009F0B0CFC0924701109211038091D0
:1025800046016AE00E94481DE82EF12C0E944D068B
:1025900061E272E0C8010E949D05A80170E060E060
:1025A00090E080E00E943C07C8010E94E80460912E
:1025B0004601C8010E946405A80161E070E090E056
:1025C00080E00E943C07C8010E94E8046EE172E0CE
:1025D000C8010E949D05A80161E070E086E090E0DE
:1025E0000E943C07C8010E94E804D12CC12C7AE06B
:1025F000972E80911203909113030E94A003E81A72
:10260000F90AEC14FD04A1F19E9C60019F9CD00C82
:10261000112433E3E316F1040CF003C4F7FE03C006
:1026200062E3E62EF12C0E947607B601C8010E94F3
:102630002C05A80161E070E090E080E00E943C077A
:10264000C8010E94E8046EE172E0C8010E949D0585
:10265000A80161E070E086E090E00E943C07C801BC
:102660000E94E8046AE070E080E090E00E945F026F
:102670000E9416018091DE039091DF03009711F014
:102680008093110380911103813039F0823009F079
:10269000B0CFC092460110921103809144019091F5
:1026A0004501B5010E94541D4B010E944D0662E395
:1026B00072E0C8010E949D05A80170E060E090E012
:1026C00080E00E943C07C8010E94E8046091440138
:1026D00070914501C8010E942C05A80161E070E0DD
:1026E00090E080E00E943C07C8010E94E8046EE18F
:1026F00072E0C8010E949D05A80161E070E086E0DB
:1027000090E00E943C07C8010E94E804712C612CF3
:1027100080911203909113030E94A003881A990AD2
:1027200086149704E9F18AE0889D3001899D700C38
:10273000112495E6891691040CF076C397FE03C028
:1027400054E6852E912C61E070E090E080E00E94DC
:10275000C00782E090E00E944F07B301C8010E94C9
:102760002C05A80161E070E090E080E00E943C0749
:10277000C8010E94E8046EE172E0C8010E949D0554
:10278000A80161E070E086E090E00E943C07C8018B
:102790000E94E8046AE070E080E090E00E945F023E
:1027A0000E9416018091DE039091DF03009711F0E3
:1027B0008093110380911103813009F438C2833072
:1027C00009F02AC20E944D0663E472E0C8010E942B
:1027D0009D05A80170E060E090E080E00E943C0769
:1027E000C8010E94E80460914201C8010E9464058A
:1027F000A80170E060E08EE090E00E943C07C80114
:102800000E94E80462E572E0C8010E949D05A801EB
:1028100061E070E090E080E00E943C07C8010E9407
:10282000E8046FE771E0C8010E949D05A80161E01E
:1028300070E08DE090E00E943C07C8010E94E8042F
:1028400060ED77E080E090E00E945F0280914201BD
:102850006AE00E94481DE82EF12C0E944D0660E6B9
:1028600072E0C8010E949D05A80170E060E090E060
:1028700080E00E943C07C8010E94E8046091420188
:10288000C8010E946405A80161E070E090E080E06A
:102890000E943C07C8010E94E8046EE672E0C8018D
:1028A0000E949D05A80161E070E084E090E00E9434
:1028B0003C07C8010E94E804809112039091130321
:1028C0000E94A003D701A81BB90BCD017101A2156D
:1028D000B305C1F135E0E32EF12CA730B1053CF48E
:1028E00046E0E42EF12CA530B1050CF07D01BAE0F4
:1028F000B89F1001B99F300C11240E947607B101D6
:10290000C8010E942C05A80161E070E090E080E021
:102910000E943C07C8010E94E8046EE672E0C8010C
:102920000E949D05A80161E070E084E090E00E94B3
:102930003C07C8010E94E8046AE070E080E090E093
:102940000E945F020E9416018091DE039091DF03D6
:10295000009711F08093110380911103823009F0E8
:10296000ABCF2092420110921103E2E32E1609F43C
:102970005EC227E430E130934A01209349018CEF95
:1029800093E00E943B09E82E8DEF93E00E943B0903
:10299000F12CFE2CEE24E80EF11C409049015090E1
:1029A0004A01AA27BB27A419B509BA87A9870E949B
:1029B0004D0661E772E0C8010E949D05A80170E024
:1029C00060E090E080E00E943C07C8010E94E804BB
:1029D000B701C8010E942C05A80161E070E090E0F9
:1029E00080E00E943C07C8010E94E80461EF71E0AA
:1029F000C8010E949D05A80161E070E088E090E0B8
:102A00000E943C07C8010E94E80480911203909143
:102A100013030E94A0036701C81AD90AEF81F88541
:102A2000EF80F884CE16DF0609F449C0C201C41451
:102A3000D5040CF4C601E984FA84E816F9060CF40E
:102A40007C0169E771E0CE0101960E949D05AE010F
:102A50004F5F5F4F61E070E090E080E00E943C07D4
:102A6000CE0101960E94E804B601CE0101960E94B3
:102A70002C05AE014F5F5F4F61E070E090E080E0B9
:102A80000E943C07CE0101960E94E80461EF71E0CC
:102A9000CE0101960E949D05AE014F5F5F4F61E040
:102AA00070E088E090E00E943C07CE0101960E9411
:102AB000E8046AE070E080E090E00E945F020E941B
:102AC00016018091DE039091DF03009711F080934F
:102AD000110380911103813009F49CC0D886CF8204
:102AE000823009F092CFD0920704C0920604C6014A
:102AF000D7FE02C081509F4F592EC60160E071E0A1
:102B00000E94541DD82E0E944D0661E772E0CE014E
:102B100001960E949D05AE014F5F5F4F70E060E03F
:102B200090E080E00E943C07CE0101960E94E804FC
:102B300064EF71E080E090E00E945F026091060423
:102B400070910704CE0101960E942C05AE014F5FE3
:102B50005F4F61E070E090E080E00E943C07CE01B2
:102B600001960E94E8046CE271E080E090E00E942F
:102B70005F026DE772E0CE0101960E949D05AE01F5
:102B80004F5F5F4F61E070E090E080E00E943C07A3
:102B9000CE0101960E94E80464EF71E080E090E0CD
:102BA0000E945F020E944D0695E0E92EF12C69E833
:102BB00072E0CE0101960E949D05AE014F5F5F4F0E
:102BC00061E070E090E080E00E943C07CE01019659
:102BD0000E94E80468EC70E080E090E00E945F02F0
:102BE00081E090E00E94990768EC70E080E090E05E
:102BF0000E945F02F1E0EF1AF108C9F6652D8CEF33
:102C000093E00E94D4086D2D8DEF93E00E94D408CC
:102C10000C9400001092110380911103823009F08E
:102C200077CD70924501609244011092110380911A
:102C300043016AE00E94481DE82EF12C0E944D06D7
:102C400065E972E0C8010E949D05A80170E060E09E
:102C500090E080E00E943C07C8010E94E804609177
:102C60004301C8010E946405A80161E070E090E0A2
:102C700080E00E943C07C8010E94E8046EE172E017
:102C8000C8010E949D05A80161E070E086E090E027
:102C90000E943C07C8010E94E804D12CC12C8AE0A4
:102CA000982E80911203909113030E94A003E81ABA
:102CB000F90AEC14FD04F1F19E9C60019F9CD00C7C
:102CC000112420E1E216F1040CF0B8C035E0E3165F
:102CD000F1041CF4BFE0EB2EF12C61E070E090E019
:102CE00080E00E94C00782E090E00E944F07B6019A
:102CF000C8010E942C05A80161E070E090E080E02E
:102D00000E943C07C8010E94E8046EE172E0C8011D
:102D10000E949D05A80161E070E086E090E00E94BD
:102D20003C07C8010E94E8046AE070E080E090E09F
:102D30000E945F020E9416018091DE039091DF03E2
:102D4000009711F08093110380911103813039F0C5
:102D5000823009F0A6CFC09243011092110384E0A3
:102D600090E00E9498091092110386E00E94ED0005
:102D7000019709F04BC368EC70E080E090E00E949E
:102D80005F020E944D0669EF72E0C8010E949D0536
:102D9000A80170E060E090E080E00E943C07C8017C
:102DA0000E94E804E0904801F12CE114F10409F4D8
:102DB000F3C20E94F40361E08BE00E94BB016091CA
:102DC000470170E090E080E00E945F0260E08BE0ED
:102DD0000E94BB016091460170E090E080E00E949B
:102DE0005F0261E08BE00E94BB0160914401709141
:102DF0004501072E000C880B990B0E945F0260E0D2
:102E00008BE00E94BB016091430170E090E080E0A4
:102E10000E945F0291E0E91AF108C7CFF12CE12C82
:102E200074CBF12CE12CFFCB912C812C8CCC88E83D
:102E300093E190934A0180934901A1CDA5E0EA2E48
:102E4000F12C4BCF809004049090050464018FEF27
:102E5000C81AD80A0E944D0666EA72E0C8010E94AC
:102E60009D05A80170E060E090E080E00E943C07D2
:102E7000C8010E94E80480911203909113030E94FC
:102E8000A0037601E81AF90A6401E814F90409F4C8
:102E900098C0CC24C394D12C93E3E916F1043CF4FC
:102EA000F2E3CF2ED12C1E141F040CF46701F09214
:102EB0000504E092040470E060E08DE090E00E9480
:102EC000C007B701C8010E942C05A80170E060E0AE
:102ED0008DE090E00E943C07C8010E94E804C70111
:102EE0000E943D0961E070E090E080E00E94C00730
:102EF00060911C0370911D03C8010E942C05A8015C
:102F000061E070E090E080E00E943C07C8010E9410
:102F1000E80461E971E0C8010E949D05A80161E033
:102F200070E082E090E00E943C07C8010E94E80443
:102F300084E090E00E944F0780911A0390911B0358
:102F4000B5010E94541DC8010E942C05A80161E032
:102F500070E084E090E00E943C07C8010E94E80411
:102F600088E090E00E944F07809118039091190328
:102F7000B5010E94541DC8010E942C05A80161E002
:102F800070E088E090E00E943C07C8010E94E804DD
:102F90008CE090E00E944F078091160390911703F8
:102FA000B5010E94541DC8010E942C05A80161E0D2
:102FB00070E08CE090E00E943C07C8010E94E804A9
:102FC00047010E9416018091DE039091DF03009774
:102FD00011F08093110380911103813009F4C5CE63
:102FE000823009F048CF0E944D0662EB72E0C801C2
:102FF0000E949D05A80170E060E090E080E00E94E2
:103000003C07C8010E94E8048091040490910504E3
:103010000E943D090E94DB0383E090E00E94980932
:103020001092110368EE73E080E090E00E945F026E
:103030009CCEEE24E394F12CC7010E943D098091BF
:10304000480120911C0330911D038217130609F0DB
:1030500073C09091470120911A0330911B0392177E
:10306000130609F069C09091460120911803309130
:1030700019039217130609F05FC040914401509163
:10308000450120911603309117034217530709F0A9
:1030900053C090914301209114033091150392176E
:1030A000130609F049C065E0C62ED12C6CEB72E026
:1030B000C8010E949D05A80161E070E090E080E0F9
:1030C0000E943C07C8010E94E804B701C8010E94A1
:1030D0002C05A80161E070E08CE090E00E943C07C4
:1030E000C8010E94E8046CE271E080E090E00E9478
:1030F0005F0281E090E00E9499076CE271E080E05D
:1031000090E00E945F02A1E0CA1AD10879F6EFEFC1
:10311000EE1AFE0AF2E3EF16F10409F08DCF45E056
:10312000E42EF12CC7010E943B09882309F43FC01B
:103130002FEFE21AF20AF6CF8111E9CF8091470111
:103140008111E5CF809146018111E1CF8091440149
:1031500090914501892BD9F6809143018111D7CFF8
:1031600055E0E52EF12C68EC72E0C8010E949D0547
:10317000A80161E070E090E080E00E943C07C80197
:103180000E94E8046CE271E080E090E00E945F023F
:1031900081E090E00E9499076CE271E080E090E0AD
:1031A0000E945F02B1E0EB1AF108E9F6DECDC7013B
:1031B00065E070E00E94541D6B01809004049090C3
:1031C00005040E944D066AED72E0C8010E949D054B
:1031D000A80170E060E090E080E00E943C07C80138
:1031E0000E94E804B601C8010E942C05A80170E005
:1031F00060E08DE090E00E943C07C8010E94E80476
:1032000080911203909113030E94A0037601E81AA3
:10321000F90A6401E814F90409F495C022E0C22E09
:10322000D12C33E3E316F10444F432E3C32ED12C62
:1032300082E0E816F1040CF0670170E060E08DE0D8
:1032400090E00E94C007B701C8010E942C05A801A8
:1032500070E060E08DE090E00E943C07C8010E94B1
:10326000E804C7010E943D0961E070E090E080E061
:103270000E94C00760911C0370911D03C8010E9449
:103280002C05A80161E070E090E080E00E943C071E
:10329000C8010E94E80461E971E0C8010E949D052F
:1032A000A80161E070E082E090E00E943C07C80164
:1032B0000E94E80484E090E00E944F0780911A0386
:1032C00090911B03B5010E94541DC8010E942C055A
:1032D000A80161E070E084E090E00E943C07C80132
:1032E0000E94E80488E090E00E944F078091180354
:1032F00090911903B5010E94541DC8010E942C052C
:10330000A80161E070E088E090E00E943C07C801FD
:103310000E94E8048CE090E00E944F078091160321
:1033200090911703B5010E94541DC8010E942C05FD
:10333000A80161E070E08CE090E00E943C07C801C9
:103340000E94E80447010E9416018091DE039091DB
:10335000DF03009711F080931103809111038130F6
:1033600009F403CD823009F04BCF68EE72E0C8015A
:103370000E949D05A80161E070E090E080E00E945D
:103380003C07C8010E94E80490920504809204045E
:10339000C4010E94D60844CE60E08BE00E94BB01CD
:1033A0000E944D0664E073E0C8010E949D05A801DB
:1033B00070E060E090E080E00E943C07C8010E945D
:1033C000E80495E0E92EF12CAFE0EA16F104B1F142
:1033D0006AEB72E0C8010E949D05A80170E060E000
:1033E000C7010E943C07C8010E94E80466E970E03A
:1033F00080E090E00E945F02BFEFEB1AFB0A86E0DC
:103400000E94ED00892B01F30E94EB070E94EB075D
:1034100065E070E080E090E00E945F0280E090E074
:10342000892B11F40C94200F0E94FC02882311F4C4
:103430000C94200F0E9400000C94200F63E771E0B1
:10344000C8010E949D05A80170E060E085E090E061
:103450000E943C07C8010E94E80485E0E82EF12C98
:10346000CECFBB274A3031F4992322F4BDE29095A8
:1034700081959F4F0C943D1ABB27FB015527AA2726
:10348000880F991FAA1FA41710F0A41B83955051F1
:10349000B9F7A05DAA3308F0A95DA193009779F769
:1034A000B111B1931192CB010C94561ADC01FC01BD
:1034B000672F71917723E1F7329704C07C916D9368
:1034C00070836291AE17BF07C8F30895E89409C0EE
:1034D00097FB3EF490958095709561957F4F8F4F47
:1034E0009F4F9923A9F0F92F96E9BB279395F6955D
:1034F000879577956795B795F111F8CFFAF4BB0FDB
:1035000011F460FF1BC06F5F7F4F8F4F9F4F16C03E
:10351000882311F096E911C0772321F09EE8872FC8
:10352000762F05C0662371F096E8862F70E060E084
:103530002AF09A95660F771F881FDAF7880F9695FD
:10354000879597F908950E94B61A0C94271B0E943C
:10355000191B38F00E94201B20F0952311F00C94C9
:10356000101B0C94161B11240C945B1B0E94381B1F
:1035700070F3959FC1F3950F50E0551F629FF001C6
:10358000729FBB27F00DB11D639FAA27F00DB11DDF
:10359000AA1F649F6627B00DA11D661F829F222768
:1035A000B00DA11D621F739FB00DA11D621F839FEF
:1035B000A00D611D221F749F3327A00D611D231FC5
:1035C000849F600D211D822F762F6A2F11249F5713
:1035D00050409AF0F1F088234AF0EE0FFF1FBB1F16
:1035E000661F771F881F91505040A9F79E3F5105D5
:1035F00080F00C94101B0C945B1B5F3FE4F3983E2F
:10360000D4F3869577956795B795F795E7959F5F7E
:10361000C1F7FE2B880F911D9695879597F9089510
:1036200097F99F6780E870E060E008959FEF80EC75
:10363000089500240A941616170618060906089518
:1036400000240A9412161306140605060895092E7E
:103650000394000C11F4882352F0BB0F40F4BF2BED
:1036600011F460FF04C06F5F7F4F8F4F9F4F08952D
:1036700057FD9058440F551F59F05F3F71F0479523
:10368000880F97FB991F61F09F3F79F08795089508
:10369000121613061406551FF2CF4695F1DF08C027
:1036A000161617061806991FF1CF86957105610544
:1036B00008940895E894BB2766277727CB0197F9EC
:1036C0000895F999FECF92BD81BDF89A992780B5EA
:1036D0000895262FF999FECF1FBA92BD81BD20BD56
:1036E0000FB6F894FA9AF99A0FBE019608952F92A0
:1036F0003F924F925F926F927F928F929F92AF9282
:10370000BF92CF92DF92EF92FF920F931F93CF93CE
:10371000DF93CDB7DEB7CA1BDB0B0FB6F894DEBF65
:103720000FBECDBF09942A88398848885F846E848B
:103730007D848C849B84AA84B984C884DF80EE80D5
:10374000FD800C811B81AA81B981CE0FD11D0FB6DE
:10375000F894DEBF0FBECDBFED0108955058BB27D2
:10376000AA270E94C61B0C94271B0E94191B38F025
:103770000E94201B20F039F49F3F19F426F40C948A
:10378000161B0EF4E095E7FB0C94101BE92F0E942A
:10379000381B58F3BA17620773078407950720F0A0
:1037A00079F4A6F50C945A1B0EF4E0950B2EBA2F63
:1037B000A02D0B01B90190010C01CA01A001112437
:1037C000FF27591B99F0593F50F4503E68F11A16E3
:1037D000F040A22F232F342F4427585FF3CF469574
:1037E00037952795A795F0405395C9F77EF41F1696
:1037F000BA0B620B730B840BBAF09150A1F0FF0F60
:10380000BB1F661F771F881FC2F70EC0BA0F621F4B
:10381000731F841F48F4879577956795B795F7953B
:103820009E3F08F0B0CF9395880F08F09927EE0FD0
:103830009795879508950E942F1C0C94271B0E9432
:10384000201B58F00E94191B40F029F45F3F29F01B
:103850000C94101B51110C945B1B0C94161B0E94B2
:10386000381B68F39923B1F3552391F3951B550B3E
:10387000BB27AA2762177307840738F09F5F5F4F43
:10388000220F331F441FAA1FA9F335D00E2E3AF082
:10389000E0E832D091505040E695001CCAF72BD09A
:1038A000FE2F29D0660F771F881FBB1F26173707EB
:1038B0004807AB07B0E809F0BB0B802DBF01FF271D
:1038C00093585F4F3AF09E3F510578F00C94101BCF
:1038D0000C945B1B5F3FE4F3983ED4F38695779599
:1038E0006795B795F7959F5FC9F7880F911D9695D6
:1038F000879597F90895E1E0660F771F881FBB1F32
:10390000621773078407BA0720F0621B730B840BDE
:10391000BA0BEE1F88F7E09508950E94941C6894F6
:10392000B1110C945B1B08950E94401B88F09F57B7
:1039300098F0B92F9927B751B0F0E1F0660F771FD3
:10394000881F991F1AF0BA95C9F714C0B13091F0C9
:103950000E945A1BB1E008950C945A1B672F782FD0
:103960008827B85F39F0B93FCCF38695779567958E
:10397000B395D9F73EF490958095709561957F4FFA
:103980008F4F9F4F089516F00C94131D0C94161B27
:1039900068940C94101B0E94401BA8F39923C1F358
:1039A000AEF3DF93CF931F930F93FF92C92FDD27C1
:1039B00088232AF02197660F771F881FDAF720E007
:1039C00030E040E85FEB9FE3883920F0803E38F03C
:1039D00021968F770E94AF1BE8E6F0E004C00E94BA
:1039E000AF1BE5E9F0E00E94211D8B01BE01EC0157
:1039F000FB2E6F5771097595771F880B990B0E94E5
:103A0000681A28E132E741E35FE30E94B61AAF2D5E
:103A10009801AE01FF900F911F91CF91DF910E940D
:103A2000C61B0C94271B9F3F31F0915020F48795C3
:103A300077956795B795880F911D9695879597F916
:103A40000895DF93CF931F930F93FF92EF92DF922E
:103A50007B018C01689406C0DA2EEF010E94B61A31
:103A6000FE01E894A5912591359145915591A6F3D4
:103A7000EF010E94C61BFE019701A801DA9469F7C5
:103A8000DF90EF90FF900F911F91CF91DF910895FC
:103A9000991B79E004C0991F961708F0961B881FA0
:103AA0007A95C9F78095089597FB072E16F4009430
:103AB00007D077FD09D00E946E1D07FC05D03EF4AB
:103AC000909581959F4F0895709561957F4F0895CA
:103AD000EE0FFF1F0590F491E02D0994AA1BBB1B6C
:103AE00051E107C0AA1FBB1FA617B70710F0A61BFE
:103AF000B70B881F991F5A95A9F780959095BC011F
:103B0000CD0108950F931F93CF93DF9382309105DA
:103B100010F482E090E0E0910A04F0910B0430E0B0
:103B200020E0B0E0A0E0309799F42115310509F4C8
:103B30004AC0281B390B24303105D8F58A819B8176
:103B40006115710589F1FB0193838283FE0111C028
:103B5000408151810281138148175907E0F04817CD
:103B6000590799F4109761F012960C9312971396D7
:103B70001C933296CF01DF91CF911F910F91089541
:103B800000930A0410930B04F4CF2115310551F072
:103B90004217530738F0A901DB019A01BD01DF018B
:103BA000F801C1CFEF01F9CF90930B0480930A0481
:103BB000CDCFFE01E20FF31F819391932250310983
:103BC00039832883D7CF2091080430910904232B0F
:103BD00041F420914D0130914E013093090420931E
:103BE000080420914B0130914C012115310541F41D
:103BF0002DB73EB740914F0150915001241B350B1A
:103C0000E0910804F0910904E217F307A0F42E1BD9
:103C10003F0B2817390778F0AC014E5F5F4F241730
:103C2000350748F04E0F5F1F509309044093080476
:103C3000819391939FCFF0E0E0E09CCFCF93DF930F
:103C40000097E9F0FC01329713821282A0910A04D6
:103C5000B0910B04ED0130E020E01097A1F4208139
:103C60003181820F931F2091080430910904281795
:103C7000390709F061C0F0930904E0930804DF916B
:103C8000CF910895EA01CE17DF07E8F54A815B81FD
:103C90009E0141155105B1F7E901FB83EA83499182
:103CA0005991C40FD51FEC17FD0761F480819181F4
:103CB0000296840F951FE9019983888382819381FD
:103CC0009B838A83F0E0E0E012968D919C9113979C
:103CD0000097B9F52D913C911197CD010296820F75
:103CE000931F20910804309109042817390739F6E9
:103CF000309751F510920B0410920A04B093090406
:103D0000A0930804BCCFD383C28340815181840F28
:103D1000951FC817D90761F44E5F5F4F888199815D
:103D2000480F591F518340838A819B8193838283EB
:103D30002115310509F0B0CFF0930B04E0930A048C
:103D40009ECFFD01DC01C0CF13821282D7CFB0E03D
:103D5000A0E0EDEAFEE10C94791B8C01009751F490
:103D6000CB010E94821D8C01C801CDB7DEB7E0E116
:103D70000C94951BFC01E60FF71F9C0122503109A2
:103D8000E217F30708F49DC0D901CD91DC9111979A
:103D9000C617D70798F0C530D10530F3CE01049788
:103DA0008617970708F3C61BD70B2297C193D193A9
:103DB0006D937C93CF010E941E1ED6CF5B01AC1A7F
:103DC000BD0A4C018C0E9D1EA0910A04B0910B04FB
:103DD000512C412CF12CE12C109731F580910804E5
:103DE000909109048815990509F05CC0461657069C
:103DF00008F058C080914B0190914C01009741F41C
:103E00008DB79EB740914F0150915001841B950B87
:103E1000E817F90708F055C0F0930904E093080487
:103E2000F90171836083A0CF8D919C9111971296B7
:103E30006C90129713967C901397A815B90559F5B5
:103E40006C0142E0C40ED11CCA14DB0420F1AC01A9
:103E50004A195B09DA011296159780F06282738223
:103E600051834083D9016D937C93E114F10471F087
:103E7000D7011396FC93EE93129776CF22968C0F70
:103E80009D1FF90191838083F301EFCFF0930B0421
:103E9000E0930A0469CF4816590608F42C017D0105
:103EA000D3019ACFCB010E94821D7C01009749F07B
:103EB000AE01B8010E94641FC8010E941E1E870146
:103EC00053CF10E000E050CFFB01DC0102C00190B5
:103ED0000D9241505040D8F70895FB01DC0101904C
:0C3EE0000D920020E1F70895F894FFCF48
:103EEC009F03000000000000070F1F1F1F000000B1
:103EFC001F1F1E1C00000000181C00000000001FEB
:103F0C001F1F0F070000000003071C1E1E1E1E1E95
:103F1C001E1C1F1F1F0000000000070F0F0F0F0FAC
:103F2C000F0732323200643201881300000C048017
:103F3C00000000000032039202BF027F03F002CEA9
:103F4C0002E2020000000044069202D803D70320CC
:103F5C002020202020202020202020202020200075
:103F6C00496D7020507265205061202057656C643B
:103F7C00005800466972737420626F6F7400656537
:103F8C0070726F6D20636C656172696E670046615B
:103F9C0063746F72792064656661756C74730073F9
:103FAC00746F726564002020202052657365740064
:103FBC004D4F542053706F742057656C64657200BC
:103FCC0053572056657273696F6E200043656C738E
:103FDC0069757300436F6F6C696E67005061636B3A
:103FEC00657473204D756C7469706C7900507265D2
:103FFC0077656C64206C656E6768742020006D7347
:10400C00005061757365206C656E676874202020A4
:10401C00200057656C64696E67206C656E67687408
:10402C002020004E6574776F726B20667265713A52
:10403C00200050686173652053686966743A2000EB
:10404C004E6574776F726B20467265713A00487AD0
:10405C0000506861736520536869667400202020E5
:10406C002053746F726564210020202020526562F9
:10407C006F6F7421005061636B7061757365206C98
:10408C00656E676874004C6F61642066726F6D3A80
:10409C0020004C6F616465642E2E2E002020696E0A
:1040AC002042616E6B3A20002056616C7565206968
:1040BC007473203021203A282000536176652069E2
:1040CC006E2062616E6B2000536176656420696EB0
:1040DC00206D656D6F72792E0057656C64696E6723
:0A40EC002E2E2E00576169740000AB
:00000001FF
